:020000040800F2
:1000000068090020450100089F12000875110008CA
:100010009D1200082B030008F115000800000000E5
:10002000000000000000000000000000E5120008D1
:100030002D03000800000000C1120008E9120008AA
:100040005F0100085F0100085F0100085F01000810
:100050005F0100085F0100085F0100085F01000800
:100060005F0100085F0100085F0100085F010008F0
:100070005F0100085F0100085F0100085F010008E0
:100080005F0100085F0100085F0100085F010008D0
:100090005F0100085F0100085F0100085F010008C0
:1000A0005F0100085F0100085F0100085F010008B0
:1000B0005F0100085F0100085F0100085F010008A0
:1000C0005F0100085F0100085F0100085F01000890
:1000D0005F0100085F0100085F0100085F01000880
:1000E0005F0100085F0100085F0100085F01000870
:1000F0005F0100085F0100085F0100085F01000860
:100100005F0100085F0100085F0100085F0100084F
:100110005F0100085F0100085F0100085F0100083F
:100120005F0100085F0100085F0100085F0100082F
:10013000DFF80CD000F0D8F8004800471928000874
:10014000680900200648804706480047FEE7FEE7AA
:10015000FEE7FEE7FEE7FEE7FEE7FEE7FEE7FEE777
:100160007913000831010008202A04DB203A21FA23
:1001700002F00021704721FA02F3D040C2F12002C0
:10018000914008431946704770B521F0004303437E
:100190000CD0C1F30A550024D5EB040564EB04032D
:1001A000D617AD1AB34102DB0020014670BD2018FE
:1001B00041EB025170BD0EB540F233410291002176
:1001C000CDE900110A460B4600F040F803B000BD2F
:1001D000C1F30A5210B5C1F3130140F2FF3341F4E9
:1001E00080119A4201DA002010BD40F233439A4256
:1001F000A2F2334203DC5242FFF7B6FF10BD90403B
:1002000010BD30B50B46014600202022012409E034
:1002100021FA02F59D4205D303FA02F5491B04FABF
:1002200002F52844151EA2F10102F1DC30BD10B523
:10023000141E73F1000408DA401C41F10001921809
:100240005B411A4301D120F0010010BD2DE9F04DB2
:1002500092469B4611B1B1FA81F202E0B0FA80F207
:100260002032904600F052F804460F4640EA0A0059
:1002700041EA0B0153465A46084313D0114653EA4C
:10028000010019D0C8F140025046FFF76DFF054646
:100290000E4650465946424600F038F8084305D00D
:1002A000012004E020463946BDE8F08D00200543DA
:1002B00046EAE0762C4337430A986305E40AA0EB4C
:1002C00008000022FD0A44EA47540A3002D5002003
:1002D0000146E9E7010510196941DDE90845001902
:1002E0006941BDE8F04DA2E7064C074D06E0E06825
:1002F00040F0010394E8070098471034AC42F6D36D
:10030000FFF71AFF2C2E00084C2E0008202A04DBD1
:10031000203A00FA02F1002070479140C2F1200318
:1003200020FA03F3194390407047FEE7704700221C
:10033000AFF3008030B50E4B054601205C7A012CEE
:1003400015D8587A00241C54587A03EB8000456075
:100350005D7A03F108002A54587A421C5A723030F0
:1003600008703A2048702F208870CC70002030BD73
:100370004005002031B500F003F9044600F000F913
:100380000099001B8842F9D338BD00002DE9F84FD1
:10039000DFF8B8A100220AF1040B144601274FF040
:1003A0000F090BF1040E00BF0B6807FA04F52B4090
:1003B000AB4274D1DFF898C14E68A6EB0C086645D5
:1003C0002BD00DDC032E34D005DC36B3012E19D032
:1003D000022E2FD11BE0112E16D0122E2AD119E099
:1003E000B8F5881F19D006DCB8F5803F15D0B8F5F0
:1003F000801F1FD111E0B8F5001F0ED0B8F5041F03
:1004000018D10AE0CA6815E0CA68121D12E0CA686D
:1004100008320FE0CA680C320CE08A682AB1012A5F
:100420004FF0080203D0456104E0042202E00561B8
:1004300000E00022FF2B01D8064601E000F104068F
:100440004FEA840501D9A5F12005D6F800C009FAC4
:1004500005F82CEA080C02FA05F54CEA050CC6F87A
:1004600000C04D68ED006AD53A4DAE6946F0010610
:10047000AE61AD6924F0030605F001050095364D27
:1004800006EB050CDCF80850A6074FEA167809FAC7
:1004900008F6B543314EB04202D100261AE04EE0D4
:1004A0002F4EB04201D1012614E02E4EB04201D1B0
:1004B00002260FE02C4EB04201D103260AE02B4E5B
:1004C000B04201D1042605E0294EB04201D10526F3
:1004D00000E0062606FA08F62E43CCF808604D68C0
:1004E000DAF80060ED03554601D51E4300E09E4357
:1004F0002E604D68AD0305D5DBF800601E43CBF8D8
:10050000006004E0DBF800509D43CBF800504D68DC
:10051000DEF80060ED02754601D51E4300E09E4303
:100520002E604D68AD0205D5084D0C352E681E4372
:100530002E6004E0054E0C3635689D433560641C22
:10054000102CFFF431AFBDE8F88F0000000401402B
:10055000000011100010024000000140000801409E
:10056000000C01400010014000140140001801403F
:10057000001C01400AB1016170470904FBE700005B
:10058000014800687047000004000020024801682C
:10059000491C01607047000004000020074810B5A6
:1005A000016841F010010160032000F07BF8002099
:1005B00000F006F800F016F8002010BD0020024000
:1005C00010B5044600F044F94FF47A71B0FBF1F035
:1005D00000F0F7FC00222146501E00F043F80020F6
:1005E00010BD00001D4808B5816941F0010181611D
:1005F000806900F001000090032000F053F8002211
:1006000011466FF00B0000F02DF8002211466FF03C
:100610000A0000F027F8002211466FF0090000F0F0
:1006200021F800221146501F00F01CF8002211464C
:10063000101F00F017F800221146901E00F012F86B
:1006400000221146501E00F00DF80548416821F0C7
:10065000E06141F00071416008BD000000100240FF
:1006600000000140F0B40E4B1B680C46C3F302239C
:10067000C3F10705042D00D90425191D072901D24E
:10068000002300E0DB1E012606FA05F1491E214089
:1006900099409E40761E16403143F0BC00F000BEEB
:1006A0000CED00E0064900F0070208684FF6FF0372
:1006B000184040EA0220034A1043086070470000D7
:1006C0000CED00E00000FA052DE9F047DFF870813D
:1006D00005460E46D8F8000000F00700B0420CD2E4
:1006E000D8F8001021F007013143C8F80010D8F8FD
:1006F000000000F00700B04277D12878514C800705
:1007000005D56068A96820F0F0000843606028788B
:10071000C00759D06968012001290DD0022929D0CC
:100720005FF0020393FAA3F2B2FA82F242F02002DF
:10073000520904D0226803E04FF40033F2E7626A02
:1007400093FAA3F3B3FA83F303F01F039840024232
:100750004BD0606820F0030008436060FFF710FF93
:100760006968074641F2883001290DD00229814687
:1007700017D025E04FF00073D4E700BFFFF700FF6C
:10078000C11B494501D918E081466068C0F381006A
:100790000128F3D118E000BFFFF7F2FEC11B494565
:1007A0000BD86068C0F381000228F5D10CE000BFCF
:1007B000FFF7E6FEC11B494502D90320BDE8F087DB
:1007C000606810F00C0FF3D1D8F80010404601F02B
:1007D0000701B1420BD9016821F0070131430160E3
:1007E000006800F00700B04201D00120E6E7287859
:1007F000400705D56068E96820F4E0600843606060
:100800002878000706D56068296920F4605040EA1E
:10081000C100606000F052F86168F02292FAA2F222
:1008200001F0F001B2FA82F2D140074A515CC840AF
:10083000064908600020FFF7C3FE0020BEE7000065
:100840000020024000100240CA2D00084400002091
:10085000014800687047000044000020084809492A
:10086000006849684FF4E06292FAA2F201F4E06194
:10087000B2FA82F2D140044A515CC840704700008D
:100880004400002000100240DA2D00080848094901
:10089000006849684FF4605292FAA2F201F4605184
:1008A000B2FA82F2D140044A515CC840704700005D
:1008B0004400002000100240DA2D000810B519A3F2
:1008C00085B00FCB8DE80F001AA01B4B0068049079
:1008D0005A681A4802F00C0104291DD008291BD1BE
:1008E0004FF4701494FAA4F402F47011B4FA84F47E
:1008F000E140D2031DF8011010D55A684FF40033BF
:1009000093FAA3F302F40032B3FA83F3DA4004ABB0
:100910009A5CB0FBF2F0484305B010BD084848436C
:10092000FAE7000002030405060708090A0B0C0D8C
:100930000E0F1010010200000010024000127A0099
:1009400000093D002DE9F84F04460078F74DC00737
:100950004FF0010625D068687704C0F381000128B4
:1009600007D06868C0F3810002281BD16868C00303
:1009700018D597FAA7F0B0FA80F040F020004009AF
:1009800001D0286800E0686A97FAA7F1B1FA81F10E
:1009900001F01F0106FA01F108425ED060680028EC
:1009A0007CD05AE06068B0F5803F0BD010B1B0F554
:1009B000A02F11D0286820F480302860286820F407
:1009C000802002E0286840F480302860606828B306
:1009D000FFF7D6FD80460BE0286840F480202860B1
:1009E000F0E700BFFFF7CCFDA0EB0800642871D84A
:1009F00097FAA7F0B0FA80F040F02000400901D04B
:100A0000286800E0686A97FAA7F1B1FA81F101F06D
:100A10001F0106FA01F10842E4D01EE0FFF7B0FD25
:100A2000804605E0FFF7ACFDA0EB08006428DED8A7
:100A300097FAA7F0B0FA80F040F02000400901D00A
:100A4000286800E0686A97FAA7F1B1FA81F101F02D
:100A50001F0106FA01F10842E4D12078DFF8D082C4
:100A600080074FF000094FF002075BD568684FF030
:100A7000F80B10F00C0F07D06868C0F38100022853
:100A80001CD16868C00319D497FAA7F0B0FA80F0B7
:100A900040F02000400902D0286801E08BE0686A3D
:100AA00097FAA7F1B1FA81F101F01F0106FA01F1FD
:100AB00008422CD0206901287DD128E0206990B31C
:100AC00096FAA6F0B0FA80F048F82060FFF758FDDB
:100AD000824607E011E100BFFFF752FDA0EB0A00DC
:100AE000022884D897FAA7F0B0FA80F040F02000EE
:100AF000400901D0286800E0686A97FAA7F1B1FAC6
:100B000081F101F01F0106FA01F10842E4D02868E2
:100B10009BFAABF26169B2FA82F220F0F8009140E0
:100B20000843286025E0FFE796FAA6F1B1FA81F1C3
:100B300048F82190FFF724FD824605E0FFF720FDED
:100B4000A0EB0A000228CCD897FAA7F0B0FA80F000
:100B500040F02000400901D0286800E0686A97FA58
:100B6000A7F1B1FA81F101F01F0106FA01F1084283
:100B7000E4D1207800076ED5A069B8B396FAA6F044
:100B8000B0FA80F008EB8000C0F88064FFF7F8FC52
:100B9000824605E0FFF7F4FCA0EB0A000228A0D88B
:100BA00097FAA7F0B0FA80F040F06000B6EB501F63
:100BB00002D128680CE062E197FAA7F0B0FA80F061
:100BC00040F06000B7EB501F01D1286A00E0686A6E
:100BD00097FAA7F1B1FA81F101F01F0106FA01F2CB
:100BE0001042D7D00120FFF7C5FB34E0FFE796FAAB
:100BF000A6F1B1FA81F108EB8101C1F88094FFF709
:100C0000BFFC824606E000BFFFF7BAFCA0EB0A007B
:100C1000022872D897FAA7F0B0FA80F040F060008E
:100C2000B6EB501F01D128680BE097FAA7F0B0FA95
:100C300080F040F06000B7EB501F01D1286A00E05F
:100C4000686A97FAA7F1B1FA81F101F01F0106FA7B
:100C500001F21042D8D12078400765D5E86940F00C
:100C60008050E861E869DFF8CCB000F08050009077
:100C7000DBF8001041F48071CBF80010FFF780FC26
:100C8000824605E0FFF77CFCA0EB0A00642834D81C
:100C9000DBF80000C005F5D5E06801280AD008B1EE
:100CA000052813D0286A20F001002862286A20F065
:100CB000040002E0286A40F001002862E06841F286
:100CC000883B90B3FFF75CFC82460BE0286A40F05B
:100CD00004002862EEE700BFFFF752FCA0EB0A0118
:100CE00059450AD897FAA7F0B0FA80F040F04000D2
:100CF000B6EB501F02D128680CE0A3E097FAA7F0EA
:100D0000B0FA80F040F04000B7EB501F01D1286AE4
:100D100000E0686A97FAA7F1B1FA81F101F01F02C9
:100D200006FA02F10842D7D031E005E00010024097
:100D30000000424200700040FFF722FC824605E0BE
:100D4000FFF71EFCA0EB0A0159457BD897FAA7F0E4
:100D5000B0FA80F040F04000B6EB501F01D1286897
:100D60000BE097FAA7F0B0FA80F040F04000B7EB44
:100D7000501F01D1286A00E0686A97FAA7F1B1FA1A
:100D800081F101F01F0206FA02F10842D8D1E069B0
:100D900080B36968C1F38101022970D04FF080717E
:100DA0004F000228484609D091FAA1F1B1FA81F129
:100DB00048F82100FFF7E4FB044669E08A4691FA0F
:100DC000A1F1B1FA81F1C14648F82100FFF7D8FB43
:100DD000804605E0FFF7D4FBA0EB0800022854D8BA
:100DE00097FAA7F0B0FA80F040F02000400902D056
:100DF000286801E061E0686A97FAA7F1B1FA81F129
:100E000001F01F0106FA01F10842E3D1206AB0F5B2
:100E1000803F05D16868A16820F40030084368600D
:100E2000D4E908010843696821F474110843686033
:100E30009AFAAAF0B0FA80F049F82060FFF7A0FB18
:100E4000044606E021E000BFFFF79AFB001B0228E2
:100E50001BD897FAA7F0B0FA80F040F020004009C4
:100E600001D0286800E0686A97FAA7F1B1FA81F129
:100E700001F01F0106FA01F10842E5D01DE01EE075
:100E8000FFF77EFB001B022802D90320BDE8F88F84
:100E900097FAA7F0B0FA80F040F02000400901D0A6
:100EA000286800E0686A97FAA7F1B1FA81F101F0C9
:100EB0001F0106FA01F10842E2D10020E6E7012015
:100EC000E4E7000010B5040003D094F8510010B11D
:100ED00004E0012010BD204600F038F8022084F81C
:100EE00051002068016821F040010160D4E901014E
:100EF0000843D4E903121143084361690843218B75
:100F000001F400710843E1690843216A0843A16ABA
:100F1000084321680860A069042101EA1040616A61
:100F20000843216848602168E06A08612068C16957
:100F300021F40061C161044900200870606501204E
:100F400084F85100002010BD0000002010B500689A
:100F5000124986B088421ED11148C16941F48041CE
:100F6000C161C0690F4C00F4804004904FF42040F0
:100F70000090022001900320039069462046FFF76D
:100F800005FA00214FF48040CDE900010291694645
:100F90002046FFF7FBF906B010BD00000038004006
:100FA00000100240000C01404FF0E02104280869C5
:100FB00003D020F004000861704740F00400FAE715
:100FC000704710B5401EB0F1807F01D3012010BDE5
:100FD0004FF0E02460610F21601700F061F90020FC
:100FE000A06107202061002010BD10B5FFF7E8FFC9
:100FF00010BD70B5040004D094F83900002510B17C
:1010000006E0012070BD84F83850204600F020F83A
:10101000022084F839002068C16821F40051C160C1
:10102000204600F0CDF92068016921F4904101616A
:101030002068416921F02A0141612068C16841F4BA
:101040000051C160E563012084F83900002070BDC3
:1010500010B50068114986B088421DD110488169D9
:1010600041F48041816180690E4C00F4804004901D
:101070004FF4007000900220019003200390694615
:101080002046FFF783F900212015CDE900010291E8
:1010900069462046FFF77AF906B010BD00380140D6
:1010A00000100240000801402DE9F047044690F886
:1010B000390099460D46012801D0222858D12DB378
:1010C00022B394F83800012852D0012684F8386001
:1010D0000027E76394F8390022281AD05FF0120045
:1010E00084F83900A284E2844FF48058E08C4B46A7
:1010F000401EE084A0684FF0000240454FF08001A0
:10110000204613D100F014FA08BB04E00120BDE82A
:10111000F0873220E4E728882168C0F3080048609F
:10112000206908B16D1C08E0AD1C06E000F000FA73
:1011300068B9216815F8010B4860E08C0028D5D10A
:101140004B4600224021204600F0F2F908B103206E
:10115000DDE794F83900322806D084F8396000BF02
:1011600084F838700020D2E7222084F83900F7E7AD
:101170000220CCE7FEE7000010B504490448FFF761
:10118000D6F80249491E087010BD00000F0000206B
:101190001400002030B5154885B0816941F0200168
:1011A0008161816901F020010491816941F00801A8
:1011B0008161816901F008010491816941F00401B4
:1011C00081618069012200F00400094D140304903C
:1011D00021462846FFF7CEF90121CDE900410391D0
:1011E00069462846FFF7D2F805B030BD001002402E
:1011F000000C0140114810B50F4901604FF4827195
:10120000416000218160C1604FF400720161C0E95A
:1012100005120822C0E90721416281620A21C162E8
:10122000FFF750FE002805D0BDE810404F2104A074
:1012300000F0DFB910BD0000003800404C00002075
:101240002E2E2F5372632F7370692E6300000000DF
:101250000D4810B50B4901604FF416514160002153
:1012600081600C22C160C0E904128161C161FFF795
:10127000C0FE002805D0BDE81040572103A000F0B3
:10128000B8B910BD00380140A40000202E2E2F5305
:1012900072632F75736172742E630000FEE77047EE
:1012A0000907090E002806DA00F00F0000F1E0201F
:1012B00080F8141D704700F1E02080F8001470479A
:1012C000704700000648418811B14188491E41809D
:1012D0008188002902D08188491E818070470000E2
:1012E0000800002070470000084810B50178491C2C
:1012F000017001780A2903D300210170FFF7E2FF92
:10130000FFF744F9BDE81040FFF76FBE080000206A
:1013100030B58FB001210804CDE9001000240294FB
:1013200002250491CDE907504FF4E010099068467A
:10133000FFF708FB00B1FEE70F20CDE90A054FF4E7
:101340008060CDE90C4002210AA80E94FFF7BCF999
:1013500000B1FEE7FFF77CFA4FF47A71B0FBF1F0D1
:10136000FFF72FFE0420FFF71FFE00221146501E3C
:10137000FFF778F90FB030BD0D48016841F0010169
:10138000016041680B4A1140416001680A4A1140FE
:101390000160016821F480210160416821F4FE01AF
:1013A00041604FF41F0181600449C0030860704729
:1013B000001002400000FFF8FFFFF6FE08ED00E01D
:1013C0002DE9F041044600680169E26821F44051CA
:1013D000114301612169A0680843616908432168DC
:1013E000CA6841F20C639A430243CA6020684169AB
:1013F000A26921F44071114341614C492068642580
:10140000322688423CD1FFF741FA00EBC00101EBE4
:10141000001061688900B0FBF1F7FFF737FA00EBC5
:10142000C00101EB00106168B0468900B0FBF1F02B
:10143000B0FBF5F06FF01801484307EB800106EBB5
:101440000110B0FBF5F000F0F006FFF71FFA00EB1B
:10145000C00101EB001061688900B0FBF1F0B0FB46
:10146000F5F006EB0016FFF711FA00EBC00101EBF7
:10147000001061688900B0FBF1F7FFF707FA3BE065
:10148000FFF7ECF900EBC00101EB00106168890087
:10149000B0FBF1F7FFF7E2F900EBC00101EB001040
:1014A0006168B0468900B0FBF1F0B0FBF5F06FF079
:1014B0001801484307EB800106EB0110B0FBF5F083
:1014C00000F0F006FFF7CAF900EBC00101EB0010D5
:1014D00061688900B0FBF1F0B0FBF5F006EB001697
:1014E000FFF7BCF900EBC00101EB00106168890057
:1014F000B0FBF1F7FFF7B2F900EBC00101EB001010
:1015000061688900B0FBF1F0B0FBF5F06FF01801F5
:10151000484307EB800108EB0110B0FBF5F02168B0
:1015200000F00F0030448860BDE8F08100380140D1
:101530002DE9F0471D4690460E460446FFF720F879
:1015400007465FEA08004FF000094FF0010808D095
:1015500030E0681C05D095B1FFF712F8C01BA84217
:101560000DD82068006836EA0000F2D127E0681C38
:1015700020D025B1FFF704F8C01BA8421AD9206873
:10158000C16821F08001C1602068C16821F020019C
:10159000C1602068C16821F48071C1602068416920
:1015A00021F00101416184F8398084F838900320EA
:1015B000BDE8F0872068006836EA0000D7D0002038
:1015C000F6E7000002480121017000787047000032
:1015D00013000020012070470020704702480121BD
:1015E0000170007870470000130000200020704751
:1015F000FEE7FEE70FB4054B10B503A9044A0298B5
:1016000000F018F810BC5DF814FB00004926000833
:101610004800002002E008C8121F08C1002AFAD1C1
:1016200070477047002001E001C1121F002AFBD162
:10163000704700002DE9FF4F89B09B460446002506
:1016400006E025280BD05A460B999047641C6D1C68
:1016500020780028F5D10DB02846BDE8F08F00278E
:10166000B8460122474900E0074314F8013F203BF8
:1016700002FA03F00842F7D120782E2819D114F885
:10168000010F47F004072A280ED06FF02F022078B0
:10169000A0F1300109290CD808EB880102EB4101C7
:1016A00000EB0108641CF2E70A98641C50F8048BF4
:1016B0000A9020780028CED0642808D0692806D067
:1016C00075281ED05A460B9990476D1C58E00A9910
:1016D0004FF00A0901C90A91002802DA40422D217F
:1016E00002E0390504D52B218DF82010012103E0FB
:1016F000F90704D02021F7E78A4608AE0DE0002163
:10170000FAE70A994FF00A0901C90A91F7E7494631
:10171000FEF777FD303106F8011D0028F7D1ADEB5B
:10172000060000F12009780701D44FF00108C845F0
:1017300002DDA8EB090000E000208046002706E05B
:1017400008A85A46C05D0B9990476D1C7F1C5745F1
:10175000F6DB04E030205A460B9990476D1CB8F137
:101760000001A8F10108F5DC05E016F8010B5A4666
:101770000B9990476D1CB9F10001A9F10109F4DC46
:10178000641C65E70928010010B50446002084F8B0
:101790000402401EC4F82C02204601F05DF808B196
:1017A000032010BDB4F8FE01A0F52A41553901D03F
:1017B000022010BD94F83600B4F8371040EA012139
:1017C0000848B0EB012F08D094F85210B4F8532019
:1017D00041EA0221B0EB012F01D1002010BD012010
:1017E00010BD000000464154F0B50022184B1446CD
:1017F00002EB420653F8265085B1D0F80072BD4284
:101800000DD103EB8605D0F808626F68B74206D1A8
:101810002D89B0F80662B54204D000E00124521CC4
:10182000022AE5D3022A01D079B904E05CB9022981
:1018300009D01220F0BD02EB420003EB800040898A
:10184000B0F5807F01D00020F0BD1020F0BD000079
:101850004C05002030B50021064A0C4601EB41033F
:1018600052F82350854201D142F82340491C0229F5
:10187000F4D330BD4C050020D0F82422D0F800026B
:10188000490A90F80202B1FBF0F0121D02CA19B128
:10189000884203D3401AF8E70020704711680844D3
:1018A0007047D0F81422891E921E8A4201D8002067
:1018B0007047D0F8282290F8020201FB0020704700
:1018C0002DE9F0410F00054606D000F0C9FE0228C0
:1018D0000BD20120BDE8F081D5F80C621EB1D5F81D
:1018E0001402B04208D8012606E0411CF2D0D5F817
:1018F00014128142EED83E463446D5F81402641CD8
:10190000A04202D80224022E0AD32146284600F023
:10191000A7FE38B1411CDDD00128DBD0B442ECD1A8
:101920000020D7E76FF070422146284600F0AFFF55
:1019300030B957B122463946284600F0A8FF20B1F9
:10194000012812D001242046C4E7C5F80C42D5F87E
:101950001002411CF7D0401EC5F8100295F8050290
:1019600040F0010085F80502EDE74FF0FF34EAE7AB
:101970002DE9F04789460C6800E0641C21782F2986
:10198000FBD05C29F9D0D0F818520B222021284630
:1019900000F05BFF002001460B460826E25C5B1C62
:1019A000202A35D92F2A33D05C2A31D02E2A01D0D3
:1019B000B04208D3082E38D12E2A36D108200B2663
:1019C0008906090EEAE7802A05D3244F41F0030176
:1019D0003A4412F8802C22A700E07F1C97F800C040
:1019E000BCF1000F02D09445F7D11EE0A2F14107EF
:1019F000192F02D841F0020107E0A2F16107192F67
:101A000003D8203A41F00101D2B22A54401CC5E764
:101A10001C44C9F80040202A01D8042200E000221A
:101A200018B12878E52803D004E00620BDE8F08747
:101A300005202870082E01D18806010E01F0030050
:101A4000012801D142F01002C1F38100012801D127
:101A500042F00802EA720020E8E700001E2D0008AC
:101A6000222A2B2C3A3B3C3D3E3F5B5D7C7F0000B5
:101A7000401E022815D20C4B00EB400203EB820102
:101A80004889B0F5807F05D008B1401E80B24881FA
:101A900010B104E00020FAE7002043F82200002003
:101AA00070470220704700004C0500202DE9F041EE
:101AB000B0F806620446761C30040F46000C37D09E
:101AC000D4F8100298B3310773D1401CC4F8100247
:101AD000D4F80C12D4F8000231B190F80222521E50
:101AE00012EA161F05D064E0B0F80802B0421FD910
:101AF0005FE000F0B5FD054601281ED9681C3AD00C
:101B0000D4F80002D0F81412A94249D87FB1D4F811
:101B10000C12FFF7D5FE05000DD0012D0DD0681C6D
:101B200029D0D4F8000201F0B4F820BB07E0FFE7A9
:101B30000420BDE8F0810720FBE70220F9E74FF41D
:101B400000720021D4F8000200F07FFE2946D4F88C
:101B50000002FFF7A6FED4F8001200274FF001089C
:101B6000C1F82C0211E000BF80F80482D4F8000212
:101B700001F08FF808B10120DBE7D4F80002D0F8BB
:101B80002C12491C7F1CC0F82C12D4F8000290F8CB
:101B90000212B942E8D8D0F82C12C91BC0F82C1296
:101BA000C4F80C522946D4F80002FFF77AFEC4F8B4
:101BB0001002A4F80662D4F8000206F00F0100EB50
:101BC0004110C4F814020020B3E770B504460021A8
:101BD00000F036F810E0D4F81012D4F8000200F04B
:101BE0003BFE58B9D4F814020078E52809D040B17A
:101BF00001212046FFF75AFF0028ECD0042809D025
:101C000009E0D4F81012D4F8000200F025FE050017
:101C100003D013E00720054610E0D4F81402202278
:101C2000002104F5007400F010FED4E905010B2238
:101C300000F002FE2168012081F80402284670BDF0
:101C400070B5A0F80612D0F808320D460446012BF4
:101C500040D0D4F80002D0F8141299423AD933B9DE
:101C600090F80012032906D1D0F824321BB190F865
:101C70000202060114E0B0F80812A9422AD9D0F8ED
:101C8000240214E000F0ECFC0346401C20D0022BA0
:101C900020D3D4F80002D0F8140298421AD9AD1B10
:101CA000D4F80002B5421946ECD2FFF7FAFDC4F8A9
:101CB0000C3278B100EB1510C4F81002D4F8000211
:101CC00005F00F0100EB4110C4F81402002070BDB4
:101CD000012070BD022070BD084910B50B5C0022C8
:101CE00053B901220A540A1801EB8000127A4068A5
:101CF0000168104688470246104610BD4005002086
:101D000030B4054C231804EB80001B7A406804694A
:101D10001846A44630BC60474005002030B4054D4D
:101D20002C1805EB8000247A406885682046AC4674
:101D300030BC604740050020044A111802EB8000C7
:101D4000097A4068426808461047000040050020B4
:101D500030B4054D2C1805EB8000247A4068C56826
:101D60002046AC4630BC60474005002010B5044614
:101D700000F097F900280DD1204600F0BAFF0028A6
:101D800008D1D4F82802FFF773FE002802D1002101
:101D9000C4F8001210BD2DE9F74F14468A46002200
:101DA0006946204600F0C4FA24685FEA000853D16F
:101DB000D4E98407B91E884202D8CAF800004BE073
:101DC00094F800920025B9F1010F02D0D4F82062F6
:101DD00017E002263146204600F042FC411C03D0A9
:101DE000012803D028B105E0012000E00220804650
:101DF00028E06D1CD4F81402761C8642EAD321E058
:101E000051B93146761C204600F026FD5FEA0008F5
:101E100018D120464FF40071B9F1020F07D00278B3
:101E2000D0F8013042EA0322120106D006E002880F
:101E300002B96D1C801C891E02E06D1C001D091F6B
:101E40007F1EDDD1C4F8105294F8050240F0010065
:101E500084F80502CAF800504046BDE8FE8F000035
:101E60002DE9F74181B0904602980090684600F055
:101E70005AFC040003D50B2004B0BDE8F0810E4EDF
:101E8000002756F8245025B12846FFF7E3FC85F8D3
:101E900000720198002801D080F8007246F82400F2
:101EA00002D0B8F1010F01D00020E5E7002202A91D
:101EB00001A800F03DFADFE7400000202DE9F747D8
:101EC000ADF50B7D06000ED04FF0000802F01F07A5
:101ED00027F001028CA980A8C6F8008200F028FA39
:101EE000040005D0B4E009200DF50E7DBDE8F087B3
:101EF00088A8869068468C9900F046FB859D040072
:101F00000BD11DB1780803D0012102E0062404E0C2
:101F100000216846FFF768FC044617F01C0F5FD0ED
:101F20004FF0010AD4B1042C13D100204A4902E039
:101F3000401C022805D200EB400251F82220002A62
:101F4000F6D1022804D06846FFF73FFE044600E0C1
:101F50001224859D47F0080754B179E0E87A10F023
:101F6000110F01D0072473E0780701D508246FE032
:101F7000380743D500F0D5FBA873010AE973010CBB
:101F80002974000E687485F80B8085F81C8085F82C
:101F90001D8085F81E8085F81F802946809800F0F6
:101FA00031FC81460021284600F010FE8099B9F1ED
:101FB000000F81F804A21FD080984946D0F82CA2C7
:101FC00000F004FD040043D18099A9F10100C1F89B
:101FD0000C025146809800F03FFC04000AD037E024
:101FE000B4BBE87AC10601D5042431E0B90701D5B4
:101FF000C007B7D1380701D547F020078098D0F83F
:102000002C02C6E98705780801D0012100E00021F3
:10201000684600F0A7FBC6F82802D8B186F8067219
:1020200086F807824746294606F50076809800F034
:10203000E9FB3061287FD5F81D1040EA0120C6E990
:102040000270B761776280983060B0F80602B080A5
:10205000204649E70224FBE74C05002010B596B066
:1020600004460020CDE90210049003E002A8641C9D
:1020700000F089FC21780029F8D1039800280DDBB5
:10208000024601AB05A9029800F067F830B9019942
:102090000398884202D1049816B010BD4FF0FF306B
:1020A000FAE770B5044600F024FE002811D194F838
:1020B00006128A060DD5480612D5D4F8000201236F
:1020C000214690F80102D4F81822FFF741FE08B12A
:1020D000012070BD94F8060220F0400084F806024A
:1020E000D4F81C12D4F8000200F0B6FB0028F0D19E
:1020F000D4F82052E87A40F02000E87294F80C02FC
:102100002877B4F80C02000A6877D4F80C02000CA7
:10211000A877D4F80C02000EE877D4F810122846FD
:1021200004F5007400F052FD00F0FBFAA875010AF6
:10213000E975010C2976000E68760020A874E87411
:10214000A07920F02000A0712168012081F804020C
:102150002068BDE8704000F041BD2DE9F84F884689
:102160000021994615460446196000F0C2FD00287A
:1021700008D194F80702002804D194F806028007D9
:1021800002D40720BDE8F88FD4F8080201274119CE
:102190004FF0020A81427BD3B9E0D4F80812C80597
:1021A00077D1D4F8002292F80202401E00EA5120B2
:1021B00010F0FF061ED131B1D4F8240240B1204600
:1021C000FFF75AFB09E0D4F8100240B9002101E002
:1021D000D4F814121046FFF773FB002858D00128DA
:1021E0003DD0411C6CD0C4F81402D4F8101209B9C7
:1021F000C4F8100294F80602400610D5D4F8000284
:102200000123214690F80102D4F81822FFF7A0FD1F
:10221000E8BB94F8060220F0400084F80602D4F8E7
:102220001412D4F80002FFF73CFBC0B13044009018
:10223000680A5FEA000B30D0D4F8000206EB0B020C
:1022400090F802128A4201D9A1EB060B90F8010224
:102250005B464146009AFFF77BFDC0B903E084F876
:1022600007A202208EE7D4F818120098081A5845E1
:102270000CD208EB40214FF40072204600F0DCFA4B
:1022800094F8060220F0400084F8060202E017E00D
:1022900040E01CE04FEA4B262DE0D4F818120098DD
:1022A000814211D0D4E9820188420DD2D4F80002D3
:1022B0000123214690F80102009AFFF72FFD18B183
:1022C00084F8077201205DE70098C4F81802B4F89A
:1022D0000802C0F30800C0F50076AE4200D92E46D1
:1022E00020443246414600F0A7FA94F8060240F036
:1022F000400084F80602D4F80802B0443044C4F820
:102300000802D9F800008119AD1BC9F80010002D92
:102310007FF443AFD4E98201884201D9C4F80C02AA
:1023200094F8060240F0200084F80602002029E715
:102330002DE9FF474FF000090746C0F80090164608
:10234000084600F0F0F9050003D50B2004B0BDE805
:10235000F0878A4850F82540A4B13C6094F8000208
:1023600028B194F80102FFF7E7FCC1070CD084F80C
:102370000092E8B284F80102FFF7AEFCC10708D072
:102380000320E3E70C20E1E70EB1400704D400206E
:10239000DCE71EB1400701D50A20D7E70025294612
:1023A0002046FFF7F1F9012823D100204FEA0D075D
:1023B00004EB001191F8C22101F5DF712AB10A7A0C
:1023C000D1F8091042EA012100E0002147F820106D
:1023D000401C0428ECD3002657F826502DB129467E
:1023E0002046FFF7D1F908B909E00220761C042E37
:1023F000F2D3032801D0E0BB01E00120A6E7B4F846
:102400000B00B0F5007F60D1E28A2AB994F824006D
:10241000D4F8251040EA0122C4F81822217C84F85F
:102420000312012901D002294FD1607B514384F866
:102430000202F0B1431E184247D1B4F81130A4F89B
:1024400008321E0741D1B4F813602EB994F8206009
:10245000D4F8217046EA0726B4F80EC0BCF1000F8C
:1024600033D00CEB010707EB1317BE422DD3F61B3D
:1024700000E02AE0B6FBF0F038B3012640F6F6782B
:10248000404500D302264FF6F678404500D3032698
:10249000801C2F44C4F82872AC44C4F81402C4E968
:1024A000875C032E13D083B16144C4F82412022E3A
:1024B00019D000F0010100EB400001EB500000BF1B
:1024C00000F2FF10B2EB502F0FD20D203EE7002B91
:1024D000FBD194F82C10D4F82D30800041EA032170
:1024E000C4F82412ECE74000EAE74FF0FF30C4F8EC
:1024F0001002C4F80C02802084F80502032E30D1AB
:10250000208E01282DD12046691C00F0A5F940BB82
:1025100084F80592B4F8FE01A0F52A41553920D17E
:102520002078D4F8011040EA01201549884218D1DA
:1025300094F8E401D4F8E51140EA012011498842F9
:102540000FD194F8E801D4F8E91140EA0120C4F869
:10255000100294F8EC01D4F8ED1140EA0120C4F81F
:102560000C02064984F80062091F0888401C088094
:10257000A4F806022046FFF76DF908E740000020A6
:10258000525261417272416173B5044601990878F3
:102590002F2801D05C2801D1491C01910025C4F8E5
:1025A000085201980078202806D200212046FFF723
:1025B00047FBC4F814527CBD01A92046FFF7D8F9A7
:1025C0000028F8D100212046FFF73AFB20BB00BFCE
:1025D000D4F81012D4F8000200F03EF9E0B9D4F8B3
:1025E00014120A7832B1CA7A12070FD40A23D4F827
:1025F000182203E004200FE05B1E06D311F8015BF4
:1026000012F8016BAD1BF7D000E02DB10021204680
:10261000FFF74CFA0028DBD0D4F81812C97A28B199
:102620000428C8D14907C6D405207CBD4907FCD47D
:10263000D4F81412C87AC006F6D5D4F8000200F017
:10264000E1F8C4F80802B7E713B56423012269462C
:102650000248FEF729FD00981CBD0000A4000020E0
:102660002DE9F0410D46044602290DD3D4F8140299
:10267000A84209D994F800024FF0FF36012807D08C
:1026800002282AD0032836D001263046BDE8F08142
:10269000D4F8200205EB550700EB5721204600F047
:1026A000DBF80028F1D1C7F308007F1C14F8008084
:1026B000D4F8200200EB5721204600F0CDF8002886
:1026C000E3D1C7F30800215C48EA0120E90701D003
:1026D0000609DAE7C0F30B06D7E7D4F8200200EBCF
:1026E0001521204600F0B8F80028CED1E8B204EB5E
:1026F00040000688C9E7D4F8200200EBD511204637
:1027000000F0AAF80028C0D140F2FF1000EA8500CE
:1027100020440178D0F8010041EA002020F0704602
:10272000B3E70020704710B504464FF0FF30226831
:10273000002A13D0114600E0491C0B78212B0ED340
:102740003A2BF9D112F8013B303B0A2B06D28A42D0
:1027500004D1002B02D1491C1846216010BD002075
:1027600010BD0000F0B50346254AD3F80042002012
:1027700000EB400552F82560A6420BD102EB85051F
:10278000D3F808626F68B74204D12D89B3F80662A6
:10279000B54202D0401C0228EAD302281AD10020F8
:1027A00002E0401C022805D200EB400552F82550FB
:1027B000002DF6D1022815D000EB400542F8254047
:1027C00002EB8504D3F808626660B3F80632238111
:1027D00000236381002900EB400102EB810149895C
:1027E00002D019B10020F0BD491C01E04FF4807106
:1027F00000EB400302EB8302401C5181F0BD00005E
:102800004C0500200246488B92F80022032A02D190
:10281000898A40EA01407047FDF7C0FEFEF778FD67
:10282000FEF7B8FCFEF7A8FCFEF712FDFEF7E2FC8F
:1028300000F08CF9FEE7000004E000BF11F8013B56
:1028400000F8013B521EF9D27047C9B201E000F80E
:10285000011B521EFBD2704770B50546D0F82C0202
:102860000C460026A04210D0284600F012FA0600BE
:102870000BD195F80102012322462946FFF74EFAB3
:1028800008B1741E0126C5F82C42304670BD2DE9F2
:10289000F04717460D460446022903D3D4F8140224
:1028A000A84202D80220BDE8F08794F8001207F091
:1028B000FF084FF00109012920D0022950D0032937
:1028C000F0D1D4F8200200EBD5112046FFF7C4FF69
:1028D0000028E8D140F2FF1101EA85010A194FF002
:1028E0007043D2F8011003EA0121394311700B0A39
:1028F00053700B0C9370090ED17041E0D4F8200294
:1029000005EB550600EB56212046FFF7A5FF0028F2
:10291000C9D1C6F30800761C2044E90703D001782A
:1029200068F31F1100E03946017084F80492D4F86E
:10293000200200EB56212046FFF78EFF0028B2D17F
:10294000C6F308012144EA0702D0C7F3071205E0E5
:102950000A78C7F3032302F0F0021A430A700FE06B
:10296000D4F8200200EB15212046FFF775FF002860
:1029700099D1E9B204EB41013A0A81F800804A702A
:1029800084F804928FE7F8B50E4604460A2902D16E
:102990000D21FFF7F8FF6568002D16DB60196D1C2F
:1029A00006733D2D0DDB6B462A4604F10C012068B1
:1029B000FFF7D3FB0098A84201D1002501E04FF0BA
:1029C000FF356560A068401CA060F8BD2DE9F041AE
:1029D0000F460646022917D3D6F81402B84213D977
:1029E000002523E039463046FFF73AFE040021D0A7
:1029F000012C09D0601C09D0002239463046FFF76F
:102A000046FF050016D103E0022513E0012511E081
:102A1000D6F81002411C08D0401CC6F8100296F8E7
:102A2000050240F0010086F805022746D6F8140298
:102A3000B842D7D82846BDE8F081000070B5012221
:102A40001EA11F48FFF70CFA1E4C207020B11EA0DB
:102A5000FEF7D0FD012070BD24A0FEF7CBFD194A82
:102A60002BA0121D111DFFF796F96168D1F8140211
:102A700091F80212801E4843FDF79DFB4FF0FF3591
:102A80002A46FDF781FBFDF7A3FB0146E06021A08C
:102A9000FEF7B0FD6068A16890F802024843FDF7B8
:102AA0008AFB2A46FDF770FBFDF792FB0146206189
:102AB0001FA0FEF79FFD002070BD00002F0000004A
:102AC000E4000020280000204552524F52212121CD
:102AD00020696E206D6F756E74696E672053442097
:102AE000434152442E2E2E0A0D0000005344204331
:102AF000415244206D6F756E746564207375636315
:102B000065737366756C6C792E2E2E0A0D000000AD
:102B1000000000005344204341524420546F74612C
:102B20006C2053697A653A200925640A0D0000007B
:102B300053442043415244204672656520537061DE
:102B400063653A200925640A0D00000010B5FFF7FF
:102B500075FF002815D113220AA10D48FFF7AEF921
:102B60000C4C0B4920700C48FFF778FA0848FFF727
:102B7000FDF82070002804D1BDE8104007A0FEF742
:102B800039BD10BD66696C65312E74787400000023
:102B90001403002028000020E42D000846696C651D
:102BA000312E747874206372656174656420616E7F
:102BB0006420746865206461746120697320777291
:102BC000697474656E200A0D0000000081760A0A9F
:102BD000C2760A0C0275090E4175704770B504463D
:102BE00000F057F8050052D194F80002032846D1AE
:102BF00094F80502012842D1420200212046FFF745
:102C000024FE552084F8FE01AA2084F8FF015220FA
:102C1000207060706120A0704121E170722284F800
:102C2000E42184F8E52184F8E61184F8E701D4F87A
:102C3000100284F8E801010A84F8E911010C84F813
:102C4000EA11000E84F8EB01D4F80C0284F8EC01D0
:102C5000010A84F8ED11010C84F8EE11000E84F8DD
:102C6000EF01D4F81C220123521CC4F82C2294F842
:102C700001022146FFF76CF8002084F805020022CB
:102C800094F801021146FFF73BF800B101252846F0
:102C900070BD2DE9F041044690F80402002728B3E6
:102CA000D4F82C5294F8010201232A462146FFF75A
:102CB0004FF808B1012719E0002084F80402D4F885
:102CC0002002D4F81812281A88420FD294F803620E
:102CD0000AE0D4F818020123054494F801022A46B8
:102CE0002146FFF735F8761E022EF2D23846BDE8AF
:102CF000F08110B588B1D0F8001271B191F80022BE
:102D00005AB1B1F80622B0F80402824205D191F816
:102D10000102FFF711F8C00700D0092010BD809A0A
:102D200090B68EB78F80D2D3D4D8D7DE8E8F9092C4
:102D300092E299E3EAEB59999A9D9C9D9E9FB5D6A4
:102D4000E0E9A5A5A6A7A8A9AAABAC21AEAFB0B1F2
:102D5000B2B3B4B5B6B7B8B9BABBBCBDBEBFC0C1DB
:102D6000C2C3C4C5C7C7C8C9CACBCCCDCECFD0D1CA
:102D7000D2D3D4D5D6D7D8D9DADBDCDDDEDFE0E1BB
:102D8000E2E3E5E5E6E7E7E9EAEBEDEDEEEFF0F1AA
:102D9000F2F3F4F5F6F7F8F9FAFBFCFDFEFF000498
:102DA0000002000180004000200010000800040024
:102DB00002000000008000400020001000080040D9
:102DC00000200010000800040002000000000000C5
:102DD00000000102030406070809000000000102C8
:102DE000030400005468697320646174612069738E
:102DF0002066726F6D207468652046494C45312EFF
:102E00007478742E20416E64206974207761732079
:102E10007772697474656E207573696E67202E2EE3
:102E20002E665F707574732E2E2E20004C2E0008B7
:102E3000000000204C00000014160008982E000826
:102E40004C0000201C0900002416000800000000AF
:102E50000000000000000000000000000000000171
:102E6000C5150008DD150008D9150008ED15000886
:102E7000D515000800000000000000000000000060
:102E80000000000000000000000000000000000042
:082E900000A24A04000000004A
:0400000508000131BD
:00000001FF
