:020000040800F2
:10000000900400204501000857170008E912000875
:1000100055170008CB0100083F1A00080000000037
:100020000000000000000000000000007B17000836
:10003000E301000800000000791700087D170008A0
:100040005F0100085F0100085F0100085F01000810
:100050005F0100085F0100085F0100085F01000800
:100060005F0100085F0100085F0100085F010008F0
:100070005F0100085F0100085F0100085F010008E0
:100080005F0100085F0100085F0100085F010008D0
:100090005F0100085F0100085F0100085F010008C0
:1000A0005F0100085F0100085F0100085F010008B0
:1000B0005F0100085F0100085F0100085F010008A0
:1000C0005F0100085F0100085F0100085F01000890
:1000D0005F0100085F0100085F0100085F01000880
:1000E0005F0100085F0100085F0100085F01000870
:1000F0005F0100085F0100085F0100085F01000860
:100100005F0100085F0100085F0100085F0100084F
:100110005F0100085F0100085F0100085F0100083F
:100120005F0100085F0100085F0100085F0100082F
:10013000DFF80CD000F02EF800480047891D0008B9
:10014000900400200648804706480047FEE7FEE787
:10015000FEE7FEE7FEE7FEE7FEE7FEE7FEE7FEE777
:10016000F51700083101000830B50B4601460020A4
:100170002022012409E021FA02F59D4205D303FA69
:1001800002F5491B04FA02F52844151EA2F10102EA
:10019000F1DC30BD064C074D06E0E06840F001039D
:1001A00094E8070098471034AC42F6D3FFF7C4FF39
:1001B000C81D0008E81D000800F00F01000900EB51
:1001C000800001EB4000C0B27047FEE70A21B0FB9F
:1001D000F1F201FB1202B0FBF1F002EB0010C0B231
:1001E0007047704731B500F0FDF8044600F0FAF8AA
:1001F0000099001B8842F9D338BD00002DE9F84F63
:10020000DFF8B8A100220AF1040B144601274FF0D1
:100210000F090BF1040E00BF0B6807FA04F52B4021
:10022000AB4274D1DFF898C14E68A6EB0C08664566
:100230002BD00DDC032E34D005DC36B3012E19D0C3
:10024000022E2FD11BE0112E16D0122E2AD119E02A
:10025000B8F5881F19D006DCB8F5803F15D0B8F581
:10026000801F1FD111E0B8F5001F0ED0B8F5041F94
:1002700018D10AE0CA6815E0CA68121D12E0CA68FF
:1002800008320FE0CA680C320CE08A682AB1012AF1
:100290004FF0080203D0456104E0042202E005614A
:1002A00000E00022FF2B01D8064601E000F1040621
:1002B0004FEA840501D9A5F12005D6F800C009FA56
:1002C00005F82CEA080C02FA05F54CEA050CC6F80C
:1002D00000C04D68ED006AD53A4DAE6946F00106A2
:1002E000AE61AD6924F0030605F001050095364DB9
:1002F00006EB050CDCF80850A6074FEA167809FA59
:1003000008F6B543314EB04202D100261AE04EE065
:100310002F4EB04201D1012614E02E4EB04201D141
:1003200002260FE02C4EB04201D103260AE02B4EEC
:10033000B04201D1042605E0294EB04201D1052684
:1003400000E0062606FA08F62E43CCF808604D6851
:10035000DAF80060ED03554601D51E4300E09E43E8
:100360002E604D68AD0305D5DBF800601E43CBF869
:10037000006004E0DBF800509D43CBF800504D686E
:10038000DEF80060ED02754601D51E4300E09E4395
:100390002E604D68AD0205D5084D0C352E681E4304
:1003A0002E6004E0054E0C3635689D433560641CB4
:1003B000102CFFF431AFBDE8F88F000000040140BD
:1003C0000000111000100240000001400008014030
:1003D000000C0140001001400014014000180140D1
:1003E000001C014001480068704700000800002020
:1003F00070B5040004D094F83500002510B106E073
:10040000012070BD84F83450204600F0C9F9242042
:1004100084F835002068016821F00101016000F0D6
:1004200049FB014628482268B1FBF0F05060274A9A
:100430006368934206D94FF4967358434FF47A7326
:10044000B0FBF3F02368401C18626068904208D843
:100450004000B1FBF0F0C0F30B01042916D20420D8
:1004600014E0A26852B100EBC00202EB0010B1FB35
:10047000F0F040F44040010507D007E000EB4000F9
:10048000B1FBF0F040F40040F5E701202168C861BD
:10049000D4E90701084321680860D4E90310084340
:1004A00021688860D4E9050108432168C860206894
:1004B000016841F001010160A563202084F8350046
:1004C00084F83650002070BD40420F00A086010025
:1004D0002DE9F84F04460AA8984690E8600294F87F
:1004E000350092468B4620287BD1002D61D0002E0E
:1004F0005FD042F2107301226949204600F0C8FF24
:100500000028F1D194F8340001286AD0012084F841
:1005100034002068016821F400610160222084F821
:100520003500402084F836000027A7634346524632
:1005300059462046CDF8009000F0ECFE28B1A06BA3
:1005400084F83470042834D072E0012E1AD0206868
:10055000DFF85081022E01682ED041F480610160E5
:100560002068416980690090032E74D8012E18D04C
:10057000022E2ED04B4600224146204600F088FF36
:1005800080BB42E02068016821F48061016072B69E
:100590002068416981690091016841F4007101603E
:1005A00062B64946204600F0FCFFE0B1A06B20286F
:1005B0003ED00120BDE8F88F41F40061016072B6C1
:1005C0002068416981690091016821F480610160BE
:1005D00062B64B4600224146204600F059FF08B95A
:1005E00005E05AE024E02068006928704CE072B60B
:1005F0002068016841F4007101602068006928707A
:1006000062B62068006968703EE02068016821F4E5
:100610008061016072B62068006905F8010B761EE2
:10062000B6B24B4600224146204600F031FF08B1E9
:100630000320BFE72068016841F400710160206871
:10064000006905F8010B62B62068006905F8010B26
:10065000B61E15E0FFE74946204600F0A2FF00283D
:10066000A4D12068006905F8010B2068761EB6B297
:100670004169C943490704D4006905F8010B761E96
:10068000B6B2002E7FF470AF202084F8350084F8D5
:10069000367084F8347000208CE702208AE700006E
:1006A00002001000040001002DE9F84F0446DDE9C6
:1006B0000A6590F83500DDF83080994692468B4601
:1006C000202868D1002E64D0002D62D042F2107331
:1006D00001223249204600F0DBFEE8BB94F83400EA
:1006E000012858D0012084F834002068016821F4E2
:1006F00000610160212084F83500402084F8360034
:100700000027A7634B46524659462046CDF8008045
:1007100000F072FE28B1A06B84F83470042838D041
:1007200007E04146204600F06FFF28B1A06B042887
:100730002AD00320BDE8F88F216816F8010B086164
:1007400020686D1EADB24169C943490707D445B160
:1007500016F8011B016100E01DE06D1EADB2002D19
:10076000DFD14146204600F04FFF0028DED154F88B
:10077000350B016841F400710160202004F81E0966
:10078000E77767770020D5E72068016841F40071BA
:1007900001600120CEE70220CCE70000020010003B
:1007A00000B500680C4985B0884212D1C020009085
:1007B000122001900320039069460848FFF71EFDB0
:1007C0000748C16941F40011C161C06900F400101B
:1007D000049005B000BD000000540040000C014032
:1007E0000010024002480168491C01607047000087
:1007F00008000020074810B5016841F010010160B1
:10080000032000F07BF8002000F006F800F016F856
:10081000002010BD0020024010B5044600F044F94D
:100820004FF47A71B0FBF1F000F084FC0022214615
:10083000501E00F043F8002010BD00001D4808B510
:10084000816941F001018161806900F0010000903F
:10085000032000F053F8002211466FF00B0000F067
:100860002DF8002211466FF00A0000F027F8002250
:1008700011466FF0090000F021F800221146501FC8
:1008800000F01CF800221146101F00F017F800229B
:100890001146901E00F012F800221146501E00F082
:1008A0000DF80548416821F0E06141F000714160B8
:1008B00008BD00000010024000000140F0B40E4BE3
:1008C0001B680C46C3F30223C3F10705042D00D9AE
:1008D0000425191D072901D2002300E0DB1E012693
:1008E00006FA05F1491E214099409E40761E1640A9
:1008F0003143F0BC00F030BF0CED00E0064900F0E1
:10090000070208684FF6FF03184040EA0220034A36
:1009100010430860704700000CED00E00000FA058D
:100920002DE9F047DFF8708105460E46D8F8000043
:1009300000F00700B0420CD2D8F8001021F00701F7
:100940003143C8F80010D8F8000000F00700B042AA
:1009500077D12878514C800705D56068A96820F0C8
:10096000F000084360602878C00759D0696801200A
:1009700001290DD0022929D05FF0020393FAA3F2D6
:10098000B2FA82F242F02002520904D0226803E057
:100990004FF40033F2E7626A93FAA3F3B3FA83F3F6
:1009A00003F01F03984002424BD0606820F0030020
:1009B00008436060FFF716FD6968074641F288301A
:1009C00001290DD00229814617D025E04FF0007390
:1009D000D4E700BFFFF706FDC11B494501D918E068
:1009E00081466068C0F381000128F3D118E000BFA0
:1009F000FFF7F8FCC11B49450BD86068C0F38100C4
:100A00000228F5D10CE000BFFFF7ECFCC11B494503
:100A100002D90320BDE8F087606810F00C0FF3D115
:100A2000D8F80010404601F00701B1420BD9016827
:100A300021F0070131430160006800F00700B04277
:100A400001D00120E6E72878400705D56068E9680D
:100A500020F4E060084360602878000706D56068ED
:100A6000296920F4605040EAC100606000F052F84B
:100A70006168F02292FAA2F201F0F001B2FA82F279
:100A8000D140074A515CC840064908600020FFF782
:100A9000C3FE0020BEE7000000200240001002401C
:100AA000B01D00080C0000200148006870470000DD
:100AB0000C00002008480949006849684FF4E062CA
:100AC00092FAA2F201F4E061B2FA82F2D140044A51
:100AD000515CC840704700000C000020001002402C
:100AE000C01D000808480949006849684FF4605271
:100AF00092FAA2F201F46051B2FA82F2D140044AB1
:100B0000515CC840704700000C00002000100240FB
:100B1000C01D000810B519A385B00FCB8DE80F00DC
:100B20001AA01B4B006804905A681A4802F00C0186
:100B300004291DD008291BD14FF4701494FAA4F491
:100B400002F47011B4FA84F4E140D2031DF80110EC
:100B500010D55A684FF4003393FAA3F302F400322D
:100B6000B3FA83F3DA4004AB9A5CB0FBF2F048438B
:100B700005B010BD08484843FAE700000203040529
:100B8000060708090A0B0C0D0E0F101001020000D9
:100B90000010024000127A0000093D002DE9F84FD4
:100BA00004460078F74DC0074FF0010625D068686D
:100BB0007704C0F38100012807D06868C0F3810082
:100BC00002281BD16868C00318D597FAA7F0B0FABD
:100BD00080F040F02000400901D0286800E0686AF9
:100BE00097FAA7F1B1FA81F101F01F0106FA01F1BC
:100BF00008425ED0606800287CD05AE06068B0F59A
:100C0000803F0BD010B1B0F5A02F11D0286820F490
:100C100080302860286820F4802002E0286840F4B2
:100C200080302860606828B3FFF7DCFB80460BE06B
:100C3000286840F480202860F0E700BFFFF7D2FB6F
:100C4000A0EB0800642871D897FAA7F0B0FA80F0FA
:100C500040F02000400901D0286800E0686A97FA57
:100C6000A7F1B1FA81F101F01F0106FA01F1084282
:100C7000E4D01EE0FFF7B6FB804605E0FFF7B2FBCD
:100C8000A0EB08006428DED897FAA7F0B0FA80F04D
:100C900040F02000400901D0286800E0686A97FA17
:100CA000A7F1B1FA81F101F01F0106FA01F1084242
:100CB000E4D12078DFF8D08280074FF000094FF0B0
:100CC00002075BD568684FF0F80B10F00C0F07D0E7
:100CD0006868C0F3810002281CD16868C00319D479
:100CE00097FAA7F0B0FA80F040F02000400902D057
:100CF000286801E08BE0686A97FAA7F1B1FA81F100
:100D000001F01F0106FA01F108422CD020690128E8
:100D10007DD128E0206990B396FAA6F0B0FA80F071
:100D200048F82060FFF75EFB824607E011E100BF54
:100D3000FFF758FBA0EB0A00022884D897FAA7F027
:100D4000B0FA80F040F02000400901D0286800E0AF
:100D5000686A97FAA7F1B1FA81F101F01F0106FA6A
:100D600001F10842E4D028689BFAABF26169B2FA5B
:100D700082F220F0F80091400843286025E0FFE768
:100D800096FAA6F1B1FA81F148F82190FFF72AFB13
:100D9000824605E0FFF726FBA0EB0A000228CCD82C
:100DA00097FAA7F0B0FA80F040F02000400901D097
:100DB000286800E0686A97FAA7F1B1FA81F101F0BA
:100DC0001F0106FA01F10842E4D1207800076ED530
:100DD000A069B8B396FAA6F0B0FA80F008EB8000EC
:100DE000C0F88064FFF7FEFA824605E0FFF7FAFAE2
:100DF000A0EB0A000228A0D897FAA7F0B0FA80F07A
:100E000040F06000B6EB501F02D128680CE062E1B0
:100E100097FAA7F0B0FA80F040F06000B7EB501FEF
:100E200001D1286A00E0686A97FAA7F1B1FA81F166
:100E300001F01F0106FA01F21042D7D00120FFF79E
:100E4000D1F934E0FFE796FAA6F1B1FA81F108EBA7
:100E50008101C1F88094FFF7C5FA824606E000BF21
:100E6000FFF7C0FAA0EB0A00022872D897FAA7F0A1
:100E7000B0FA80F040F06000B6EB501F01D1286856
:100E80000BE097FAA7F0B0FA80F040F06000B7EB03
:100E9000501F01D1286A00E0686A97FAA7F1B1FAF9
:100EA00081F101F01F0106FA01F21042D8D1207839
:100EB000400765D5E86940F08050E861E869DFF8EF
:100EC000CCB000F080500090DBF8001041F480714D
:100ED000CBF80010FFF786FA824605E0FFF782FAAA
:100EE000A0EB0A00642834D8DBF80000C005F5D573
:100EF000E06801280AD008B1052813D0286A20F03C
:100F000001002862286A20F0040002E0286A40F00C
:100F100001002862E06841F2883B90B3FFF762FA73
:100F200082460BE0286A40F004002862EEE700BF2A
:100F3000FFF758FAA0EB0A0159450AD897FAA7F02B
:100F4000B0FA80F040F04000B6EB501F02D12868A4
:100F50000CE0A3E097FAA7F0B0FA80F040F0400070
:100F6000B7EB501F01D1286A00E0686A97FAA7F131
:100F7000B1FA81F101F01F0206FA02F10842D7D05E
:100F800031E005E0001002400000424200700040E5
:100F9000FFF728FA824605E0FFF724FAA0EB0A01E2
:100FA00059457BD897FAA7F0B0FA80F040F040009E
:100FB000B6EB501F01D128680BE097FAA7F0B0FA02
:100FC00080F040F04000B7EB501F01D1286A00E0EC
:100FD000686A97FAA7F1B1FA81F101F01F0206FAE7
:100FE00002F10842D8D1E06980B36968C1F3810198
:100FF000022970D04FF080714F000228484609D076
:1010000091FAA1F1B1FA81F148F82100FFF7EAF96C
:10101000044669E08A4691FAA1F1B1FA81F1C1462C
:1010200048F82100FFF7DEF9804605E0FFF7DAF91E
:10103000A0EB0800022854D897FAA7F0B0FA80F085
:1010400040F02000400902D0286801E061E0686AB1
:1010500097FAA7F1B1FA81F101F01F0106FA01F147
:101060000842E3D1206AB0F5803F05D16868A168E5
:1010700020F4003008436860D4E908010843696837
:1010800021F47411084368609AFAAAF0B0FA80F06B
:1010900049F82060FFF7A6F9044606E021E000BF0A
:1010A000FFF7A0F9001B02281BD897FAA7F0B0FAA7
:1010B00080F040F02000400901D0286800E0686A14
:1010C00097FAA7F1B1FA81F101F01F0106FA01F1D7
:1010D0000842E5D01DE01EE0FFF784F9001B02285E
:1010E00002D90320BDE8F88F97FAA7F0B0FA80F094
:1010F00040F02000400901D0286800E0686A97FAB3
:10110000A7F1B1FA81F101F01F0106FA01F10842DD
:10111000E2D10020E6E70120E4E74FF0E0210428D7
:10112000086903D020F004000861704740F0040013
:10113000FAE7704710B5401EB0F1807F01D301205F
:1011400010BD4FF0E02460610F21601700F004FB38
:101150000020A06107202061002010BD10B5FFF71E
:10116000E8FF10BD70B5040004D094F839000025E4
:1011700010B106E0012070BD84F83850204600F020
:1011800021F8022084F839002068C16821F4005158
:10119000C160204600F052FB2068016921F49041B3
:1011A00001612068416921F02A0141612068C1681C
:1011B00041F40051C160E563012084F8390000204A
:1011C00070BD000010B50068114986B088421DD17D
:1011D0001048816941F48041816180690E4C00F4BE
:1011E000804004904FF40070009002200190032092
:1011F000039069462046FFF701F800212015CDE94C
:101200000001029169462046FEF7F8FF06B010BDC6
:101210000038014000100240000801402DE9F0476D
:10122000044690F8390099460D46012801D022283D
:1012300058D12DB322B394F83800012852D001269A
:1012400084F838600027E76394F8390022281AD020
:101250005FF0120084F83900A284E2844FF48058D1
:10126000E08C4B46401EE084A0684FF000024045F1
:101270004FF08001204613D100F098FB08BB04E03A
:101280000120BDE8F0873220E4E728882168C0F318
:1012900008004860206908B16D1C08E0AD1C06E03C
:1012A00000F084FB68B9216815F8010B4860E08CF8
:1012B0000028D5D14B4600224021204600F076FB85
:1012C00008B10320DDE794F83900322806D084F80D
:1012D000396000BF84F838700020D2E7222084F8FB
:1012E0003900F7E70220CCE7FEE701684A69D243FC
:1012F00052050DD44A6922F480624A610421816357
:10130000202180F83510002180F83410012070472A
:10131000002070472DE9F84F044600680F46DDF8BD
:1013200028B001689846164641F480610160206843
:10133000016841F4807101604FF001195B460022A1
:101340004946204600F0A4F8F0BB216807F0FE00F3
:10135000086109F1010A5A465146204600F0DDF8BD
:1013600018B1A06B042811D036E02068416980696B
:1013700000905946204600F047F950B1A06B042870
:101380002AD12068016841F4007101600120BDE8A4
:10139000F88FF5B2B8F1010F08D02168300A086162
:1013A0005946204600F030F90028E7D12068056151
:1013B0005946204600F028F90028DFD1206801684E
:1013C00041F48071016000E006E05B46002249467E
:1013D000204600F05DF808B10320D8E72168F8B294
:1013E00040F0010008615A465146204600F095F849
:1013F0000028B6D1CBE700002DE9F8430446006889
:101400000E46DDF8208001681F46154641F48071C4
:101410000160434600224FF00111204600F038F8E9
:10142000D8B9216806F0FE000861424617492046F7
:1014300000F073F828B1A06B04280ED10120BDE89C
:10144000F88320684169806900904146204600F099
:10145000DBF820B1A06B042811D00320EFE7EEB237
:10146000012F08D02168280A08614146204600F073
:10147000CBF80028EED1206806610020DFE7206865
:10148000016841F400710160D8E70000020001002A
:101490002DE9F05F1E4690460C460546FEF7A2FF7A
:1014A00081464FF0000A4FF0200BC4F30747B8F114
:1014B000000F09D024E0701C06D0D6B1FEF792FFD1
:1014C000A0EB0900B04214D82868012F06D080692B
:1014D00024EA00000004000C1BD0ECE74069F7E7A9
:1014E000701C0DD02EB1FEF77DFFA0EB0900B042BD
:1014F00006D985F835B085F834A00320BDE8F09F03
:101500002868012F07D0806924EA00000004000C3D
:10151000E6D00020F2E74069F6E72DE9F047914672
:101520000D460446FEF75EFF824600274FF0200876
:10153000C5F3074629E020684069C043400512D43E
:101540002068016841F4007101602068416921F45C
:10155000806141610420A06384F8358084F8347090
:101560000120BDE8F087B9F1FF3F0ED0B9F1000FBF
:1015700005D0FEF737FFA0EB0A01494505D984F8ED
:10158000358084F834700320EBE72068012E06D004
:10159000806925EA00000004000CE2D0CBE7406936
:1015A000F7E72DE9F04188460446FEF71BFF0025CA
:1015B0000646202721E04169C943C9060BD4416989
:1015C00021F010014161A56384F8357084F834502E
:1015D0000120BDE8F081B8F1000F04D0FEF702FF52
:1015E000811B414509D954F8380F40F0200044F8D8
:1015F0000409677025700320EBE720684169C9433F
:101600004906D8D40020E4E770B50D460446FEF73D
:10161000E9FE064619E02046FFF767FE08B1012003
:1016200070BD681C11D025B1FEF7DCFE801BA842FE
:101630000BD954F8380F40F0200044F8040920205A
:10164000607000202070032070BD20684069C04396
:101650000006E0D4002070BD0D4808B5816941F056
:1016600020018161816901F020010091816941F0CF
:1016700004018161816901F004010091816941F0F7
:1016800008018161806900F00800009008BD000039
:10169000001002400E4810B50C4901600D49416030
:1016A00000214FF480428160C0E9031241618161F1
:1016B000C1610162FEF79CFE002805D0BDE8104024
:1016C000152105A000F0BCB910BD00000054004079
:1016D00014000020A08601002E2E2F5372632F6964
:1016E00032632E63000000000E4810B50C49016003
:1016F0004FF4E1314160002181600C22C160C0E9FA
:1017000004128161C161FFF72DFD18B1212106A0EE
:1017100000F096F9BDE8104007A000F093B9000072
:1017200000380140500000202E2E2F5372632F7579
:10173000736172742E63000048656C6C6F20576F84
:10174000726C642066726F6D2055736172740A0D3D
:1017500000000000FEE770470907090E002806DABE
:1017600000F00F0000F1E02080F8141D704700F138
:10177000E02080F8001470477047704710B5FFF7FD
:1017800031F8BDE81040FFF7E9BC30B58FB001215A
:101790000804CDE900100024029402250491CDE94B
:1017A00007504FF4E01009906846FFF7F7F900B1D1
:1017B000FEE70F20CDE90A054FF48060CDE90C402B
:1017C00002210AA80E94FFF7ABF800B1FEE7FFF77D
:1017D0006BF94FF47A71B0FBF1F0FFF7ABFC04202A
:1017E000FFF79BFC00221146501EFFF767F80FB071
:1017F00030BD00000D48016841F001010160416801
:101800000B4A1140416001680A4A114001600168B9
:1018100021F480210160416821F4FE0141604FF410
:101820001F0181600449C003086070470010024036
:101830000000FFF8FFFFF6FE08ED00E02DE9F041A3
:10184000044600680169E26821F4405111430161D6
:101850002169A0680843616908432168CA6841F2A8
:101860000C639A430243CA6020684169A26921F46B
:101870004071114341614C492068642532268842F9
:101880003CD1FFF72FF900EBC00101EB00106168BC
:101890008900B0FBF1F7FFF725F900EBC00101EB80
:1018A00000106168B0468900B0FBF1F0B0FBF5F0C4
:1018B0006FF01801484307EB800106EB0110B0FB05
:1018C000F5F000F0F006FFF70DF900EBC00101EBB9
:1018D000001061688900B0FBF1F0B0FBF5F006EB99
:1018E0000016FFF7FFF800EBC00101EB0010616884
:1018F0008900B0FBF1F7FFF7F5F83BE0FFF7DAF806
:1019000000EBC00101EB001061688900B0FBF1F74A
:10191000FFF7D0F800EBC00101EB00106168B046A2
:101920008900B0FBF1F0B0FBF5F06FF0180148430F
:1019300007EB800106EB0110B0FBF5F000F0F006BC
:10194000FFF7B8F800EBC00101EB001061688900F7
:10195000B0FBF1F0B0FBF5F006EB0016FFF7AAF8CC
:1019600000EBC00101EB001061688900B0FBF1F7EA
:10197000FFF7A0F800EBC00101EB001061688900DF
:10198000B0FBF1F0B0FBF5F06FF01801484307EB46
:10199000800108EB0110B0FBF5F0216800F00F00AA
:1019A00030448860BDE8F081003801402DE9F047FF
:1019B0001D4690460E460446FEF714FD07465FEAB4
:1019C00008004FF000094FF0010808D030E0681C13
:1019D00005D095B1FEF706FDC01BA8420DD82068C2
:1019E000006836EA0000F2D127E0681C20D025B15B
:1019F000FEF7F8FCC01BA8421AD92068C16821F084
:101A00008001C1602068C16821F02001C1602068A8
:101A1000C16821F48071C1602068416921F0010131
:101A2000416184F8398084F838900320BDE8F0875C
:101A30002068006836EA0000D7D00020F6E7FEE70D
:101A4000FEE700000FB4054B10B503A9044A029845
:101A500000F018F810BC5DF814FB00002D1D000804
:101A60001000002002E008C8121F08C1002AFAD1A5
:101A700070477047002001E001C1121F002AFBD10E
:101A8000704700002DE9FF4F89B09B4604460025B2
:101A900006E025280BD05A460B999047641C6D1C14
:101AA00020780028F5D10DB02846BDE8F08F00273A
:101AB000B8460122474900E0074314F8013F203BA4
:101AC00002FA03F00842F7D120782E2819D114F831
:101AD000010F47F004072A280ED06FF02F0220785C
:101AE000A0F1300109290CD808EB880102EB410173
:101AF00000EB0108641CF2E70A98641C50F8048BA0
:101B00000A9020780028CED0642808D0692806D012
:101B100075281ED05A460B9990476D1C58E00A99BB
:101B20004FF00A0901C90A91002802DA40422D212A
:101B300002E0390504D52B218DF82010012103E0A6
:101B4000F90704D02021F7E78A4608AE0DE000210E
:101B5000FAE70A994FF00A0901C90A91F7E74946DD
:101B6000FEF702FB303106F8011D0028F7D1ADEB7E
:101B7000060000F12009780701D44FF00108C8459C
:101B800002DDA8EB090000E000208046002706E007
:101B900008A85A46C05D0B9990476D1C7F1C57459D
:101BA000F6DB04E030205A460B9990476D1CB8F1E3
:101BB0000001A8F10108F5DC05E016F8010B5A4612
:101BC0000B9990476D1CB9F10001A9F10109F4DCF2
:101BD000641C65E7092801000EB5084800F02AF8E2
:101BE00006488178037842788DE80E00C378027940
:101BF000417903A0FFF726FF0EBD00000000002082
:101C00002564285929202D202564284D29202D20A0
:101C10002564284429202D2D202564284829202D9D
:101C2000202564284D6929202D202564285329204A
:101C30000A0D000010B50446002000F03CF8FEF745
:101C4000BBFA2070012000F036F8FEF7B5FA60709C
:101C5000022000F030F8FEF7AFFAA070042000F088
:101C60002AF8FEF7A9FAE070052000F024F8FEF744
:101C7000A3FA2071062000F01EF8FEF79DFA6071AD
:101C800010BD1CB500F00DF8002809D11521062063
:101C9000CDE9000105230F222D21002000F00FF8CF
:101CA0001CBD10B50F2000F006F8400701D5042038
:101CB00010BD002010BD0146D02000F043B82DE932
:101CC000F0419846DDE9064516460F46FEF77EFAD6
:101CD0000146002000F025F83846FEF777FA014665
:101CE000012000F01EF83046FEF770FA014602208F
:101CF00000F017F84046FEF769FA0146042000F0AC
:101D000010F82046FEF762FA0146052000F009F8B7
:101D10002846FEF75BFABDE8F04101460620AFF326
:101D200000800A460146D02000F01EB813B5642397
:101D3000012269460248FFF771FA00981CBD0000B5
:101D4000500000201FB50A24012303AA8DE81C00BF
:101D50000A4601460348FEF7BBFB9DF80C0004B0A1
:101D600010BD00001400002017B583B00A24012321
:101D700005AA8DE81C000A4601460248FEF794FCBD
:101D800006B010BD14000020FEF734FDFFF7FDFC87
:101D9000FFF762FCFFF77EFCFFF7A6FCFFF771FF81
:101DA0004FF47A74FFF718FF2046FEF71BFAF9E7A5
:101DB00000000000000000000102030406070809FB
:101DC0000000000001020304E81D000800000020DC
:101DD00014000000641A0008FC1D00081400002014
:101DE0007C040000741A00080000000000000000DD
:0C1DF0000000000000A24A0400000000F7
:0400000508000131BD
:00000001FF
